{
  "_format": "hh-sol-artifact-1",
  "contractName": "Domains",
  "sourceName": "contracts/Domains.sol",
  "abi": [
    {
      "inputs": [
        {
          "internalType": "string",
          "name": "_tld",
          "type": "string"
        }
      ],
      "stateMutability": "payable",
      "type": "constructor"
    },
    {
      "anonymous": false,
      "inputs": [
        {
          "indexed": true,
          "internalType": "address",
          "name": "owner",
          "type": "address"
        },
        {
          "indexed": true,
          "internalType": "address",
          "name": "approved",
          "type": "address"
        },
        {
          "indexed": true,
          "internalType": "uint256",
          "name": "tokenId",
          "type": "uint256"
        }
      ],
      "name": "Approval",
      "type": "event"
    },
    {
      "anonymous": false,
      "inputs": [
        {
          "indexed": true,
          "internalType": "address",
          "name": "owner",
          "type": "address"
        },
        {
          "indexed": true,
          "internalType": "address",
          "name": "operator",
          "type": "address"
        },
        {
          "indexed": false,
          "internalType": "bool",
          "name": "approved",
          "type": "bool"
        }
      ],
      "name": "ApprovalForAll",
      "type": "event"
    },
    {
      "anonymous": false,
      "inputs": [
        {
          "indexed": true,
          "internalType": "address",
          "name": "from",
          "type": "address"
        },
        {
          "indexed": true,
          "internalType": "address",
          "name": "to",
          "type": "address"
        },
        {
          "indexed": true,
          "internalType": "uint256",
          "name": "tokenId",
          "type": "uint256"
        }
      ],
      "name": "Transfer",
      "type": "event"
    },
    {
      "inputs": [
        {
          "internalType": "address",
          "name": "to",
          "type": "address"
        },
        {
          "internalType": "uint256",
          "name": "tokenId",
          "type": "uint256"
        }
      ],
      "name": "approve",
      "outputs": [],
      "stateMutability": "nonpayable",
      "type": "function"
    },
    {
      "inputs": [
        {
          "internalType": "address",
          "name": "owner",
          "type": "address"
        }
      ],
      "name": "balanceOf",
      "outputs": [
        {
          "internalType": "uint256",
          "name": "",
          "type": "uint256"
        }
      ],
      "stateMutability": "view",
      "type": "function"
    },
    {
      "inputs": [
        {
          "internalType": "string",
          "name": "",
          "type": "string"
        }
      ],
      "name": "domains",
      "outputs": [
        {
          "internalType": "address",
          "name": "",
          "type": "address"
        }
      ],
      "stateMutability": "view",
      "type": "function"
    },
    {
      "inputs": [
        {
          "internalType": "string",
          "name": "domain",
          "type": "string"
        }
      ],
      "name": "getAddress",
      "outputs": [
        {
          "internalType": "address",
          "name": "",
          "type": "address"
        }
      ],
      "stateMutability": "view",
      "type": "function"
    },
    {
      "inputs": [
        {
          "internalType": "uint256",
          "name": "tokenId",
          "type": "uint256"
        }
      ],
      "name": "getApproved",
      "outputs": [
        {
          "internalType": "address",
          "name": "",
          "type": "address"
        }
      ],
      "stateMutability": "view",
      "type": "function"
    },
    {
      "inputs": [
        {
          "internalType": "string",
          "name": "record",
          "type": "string"
        }
      ],
      "name": "getRecord",
      "outputs": [
        {
          "internalType": "string",
          "name": "",
          "type": "string"
        }
      ],
      "stateMutability": "view",
      "type": "function"
    },
    {
      "inputs": [
        {
          "internalType": "address",
          "name": "owner",
          "type": "address"
        },
        {
          "internalType": "address",
          "name": "operator",
          "type": "address"
        }
      ],
      "name": "isApprovedForAll",
      "outputs": [
        {
          "internalType": "bool",
          "name": "",
          "type": "bool"
        }
      ],
      "stateMutability": "view",
      "type": "function"
    },
    {
      "inputs": [],
      "name": "name",
      "outputs": [
        {
          "internalType": "string",
          "name": "",
          "type": "string"
        }
      ],
      "stateMutability": "view",
      "type": "function"
    },
    {
      "inputs": [
        {
          "internalType": "uint256",
          "name": "tokenId",
          "type": "uint256"
        }
      ],
      "name": "ownerOf",
      "outputs": [
        {
          "internalType": "address",
          "name": "",
          "type": "address"
        }
      ],
      "stateMutability": "view",
      "type": "function"
    },
    {
      "inputs": [
        {
          "internalType": "string",
          "name": "domain",
          "type": "string"
        }
      ],
      "name": "price",
      "outputs": [
        {
          "internalType": "uint256",
          "name": "",
          "type": "uint256"
        }
      ],
      "stateMutability": "pure",
      "type": "function"
    },
    {
      "inputs": [
        {
          "internalType": "string",
          "name": "",
          "type": "string"
        }
      ],
      "name": "records",
      "outputs": [
        {
          "internalType": "string",
          "name": "",
          "type": "string"
        }
      ],
      "stateMutability": "view",
      "type": "function"
    },
    {
      "inputs": [
        {
          "internalType": "string",
          "name": "domain",
          "type": "string"
        }
      ],
      "name": "register",
      "outputs": [],
      "stateMutability": "payable",
      "type": "function"
    },
    {
      "inputs": [
        {
          "internalType": "address",
          "name": "from",
          "type": "address"
        },
        {
          "internalType": "address",
          "name": "to",
          "type": "address"
        },
        {
          "internalType": "uint256",
          "name": "tokenId",
          "type": "uint256"
        }
      ],
      "name": "safeTransferFrom",
      "outputs": [],
      "stateMutability": "nonpayable",
      "type": "function"
    },
    {
      "inputs": [
        {
          "internalType": "address",
          "name": "from",
          "type": "address"
        },
        {
          "internalType": "address",
          "name": "to",
          "type": "address"
        },
        {
          "internalType": "uint256",
          "name": "tokenId",
          "type": "uint256"
        },
        {
          "internalType": "bytes",
          "name": "_data",
          "type": "bytes"
        }
      ],
      "name": "safeTransferFrom",
      "outputs": [],
      "stateMutability": "nonpayable",
      "type": "function"
    },
    {
      "inputs": [
        {
          "internalType": "address",
          "name": "operator",
          "type": "address"
        },
        {
          "internalType": "bool",
          "name": "approved",
          "type": "bool"
        }
      ],
      "name": "setApprovalForAll",
      "outputs": [],
      "stateMutability": "nonpayable",
      "type": "function"
    },
    {
      "inputs": [
        {
          "internalType": "string",
          "name": "domain",
          "type": "string"
        },
        {
          "internalType": "string",
          "name": "record",
          "type": "string"
        }
      ],
      "name": "setRecord",
      "outputs": [],
      "stateMutability": "nonpayable",
      "type": "function"
    },
    {
      "inputs": [
        {
          "internalType": "bytes4",
          "name": "interfaceId",
          "type": "bytes4"
        }
      ],
      "name": "supportsInterface",
      "outputs": [
        {
          "internalType": "bool",
          "name": "",
          "type": "bool"
        }
      ],
      "stateMutability": "view",
      "type": "function"
    },
    {
      "inputs": [],
      "name": "svgPartOne",
      "outputs": [
        {
          "internalType": "string",
          "name": "",
          "type": "string"
        }
      ],
      "stateMutability": "view",
      "type": "function"
    },
    {
      "inputs": [],
      "name": "svgPartTwo",
      "outputs": [
        {
          "internalType": "string",
          "name": "",
          "type": "string"
        }
      ],
      "stateMutability": "view",
      "type": "function"
    },
    {
      "inputs": [],
      "name": "symbol",
      "outputs": [
        {
          "internalType": "string",
          "name": "",
          "type": "string"
        }
      ],
      "stateMutability": "view",
      "type": "function"
    },
    {
      "inputs": [],
      "name": "tld",
      "outputs": [
        {
          "internalType": "string",
          "name": "",
          "type": "string"
        }
      ],
      "stateMutability": "view",
      "type": "function"
    },
    {
      "inputs": [
        {
          "internalType": "uint256",
          "name": "tokenId",
          "type": "uint256"
        }
      ],
      "name": "tokenURI",
      "outputs": [
        {
          "internalType": "string",
          "name": "",
          "type": "string"
        }
      ],
      "stateMutability": "view",
      "type": "function"
    },
    {
      "inputs": [
        {
          "internalType": "address",
          "name": "from",
          "type": "address"
        },
        {
          "internalType": "address",
          "name": "to",
          "type": "address"
        },
        {
          "internalType": "uint256",
          "name": "tokenId",
          "type": "uint256"
        }
      ],
      "name": "transferFrom",
      "outputs": [],
      "stateMutability": "nonpayable",
      "type": "function"
    }
  ],
  "bytecode": "0x6080604052604051806108a0016040528061086b815260200162004ecc61086b9139600890805190602001906200003892919062000287565b506040518060400160405280600d81526020017f3c2f746578743e3c2f7376673e00000000000000000000000000000000000000815250600990805190602001906200008692919062000287565b5060405162005737380380620057378339818101604052810190620000ac9190620004d4565b6040518060400160405280601281526020017f5461626c65204e616d65205365727669636500000000000000000000000000008152506040518060400160405280600581526020017f5441424c4100000000000000000000000000000000000000000000000000000081525081600090805190602001906200013092919062000287565b5080600190805190602001906200014992919062000287565b50505080600a90805190602001906200016492919062000287565b50620001b16040518060400160405280601881526020017f2573206e616d652073657276696365206465706c6f796564000000000000000081525082620001b860201b620017e01760201c565b5062000622565b6200025a8282604051602401620001d192919062000582565b6040516020818303038152906040527f4b5c4277000000000000000000000000000000000000000000000000000000007bffffffffffffffffffffffffffffffffffffffffffffffffffffffff19166020820180517bffffffffffffffffffffffffffffffffffffffffffffffffffffffff83818316178352505050506200025e60201b60201c565b5050565b60008151905060006a636f6e736f6c652e6c6f679050602083016000808483855afa5050505050565b8280546200029590620005ec565b90600052602060002090601f016020900481019282620002b9576000855562000305565b82601f10620002d457805160ff191683800117855562000305565b8280016001018555821562000305579182015b8281111562000304578251825591602001919060010190620002e7565b5b50905062000314919062000318565b5090565b5b808211156200033357600081600090555060010162000319565b5090565b6000604051905090565b600080fd5b600080fd5b600080fd5b600080fd5b6000601f19601f8301169050919050565b7f4e487b7100000000000000000000000000000000000000000000000000000000600052604160045260246000fd5b620003a08262000355565b810181811067ffffffffffffffff82111715620003c257620003c162000366565b5b80604052505050565b6000620003d762000337565b9050620003e5828262000395565b919050565b600067ffffffffffffffff82111562000408576200040762000366565b5b620004138262000355565b9050602081019050919050565b60005b838110156200044057808201518184015260208101905062000423565b8381111562000450576000848401525b50505050565b60006200046d6200046784620003ea565b620003cb565b9050828152602081018484840111156200048c576200048b62000350565b5b6200049984828562000420565b509392505050565b600082601f830112620004b957620004b86200034b565b5b8151620004cb84826020860162000456565b91505092915050565b600060208284031215620004ed57620004ec62000341565b5b600082015167ffffffffffffffff8111156200050e576200050d62000346565b5b6200051c84828501620004a1565b91505092915050565b600081519050919050565b600082825260208201905092915050565b60006200054e8262000525565b6200055a818562000530565b93506200056c81856020860162000420565b620005778162000355565b840191505092915050565b600060408201905081810360008301526200059e818562000541565b90508181036020830152620005b4818462000541565b90509392505050565b7f4e487b7100000000000000000000000000000000000000000000000000000000600052602260045260246000fd5b600060028204905060018216806200060557607f821691505b602082108114156200061c576200061b620005bd565b5b50919050565b61489a80620006326000396000f3fe6080604052600436106101405760003560e01c80636523174c116100b6578063c1880a981161006f578063c1880a98146104a6578063c87b56dd146104cf578063e985e9c51461050c578063f2c298be14610549578063f887a28914610565578063fe2c61981461059057610140565b80636523174c1461038457806370a08231146103af57806395d89b41146103ec578063a22cb46514610417578063b88d4fde14610440578063bf40fac11461046957610140565b806323b872dd1161010857806323b872dd1461025057806326449235146102795780632d551432146102b657806342842e0e146102e1578063541e771d1461030a5780636352211e1461034757610140565b806301ffc9a71461014557806306fdde0314610182578063081812fc146101ad578063095ea7b3146101ea57806311dd884514610213575b600080fd5b34801561015157600080fd5b5061016c60048036038101906101679190612cc2565b6105cd565b6040516101799190612d0a565b60405180910390f35b34801561018e57600080fd5b506101976106af565b6040516101a49190612dbe565b60405180910390f35b3480156101b957600080fd5b506101d460048036038101906101cf9190612e16565b610741565b6040516101e19190612e84565b60405180910390f35b3480156101f657600080fd5b50610211600480360381019061020c9190612ecb565b6107c6565b005b34801561021f57600080fd5b5061023a60048036038101906102359190612f70565b6108de565b6040516102479190612dbe565b60405180910390f35b34801561025c57600080fd5b5061027760048036038101906102729190612fbd565b610991565b005b34801561028557600080fd5b506102a0600480360381019061029b9190613140565b6109f1565b6040516102ad9190612e84565b60405180910390f35b3480156102c257600080fd5b506102cb610a3a565b6040516102d89190612dbe565b60405180910390f35b3480156102ed57600080fd5b5061030860048036038101906103039190612fbd565b610ac8565b005b34801561031657600080fd5b50610331600480360381019061032c9190613140565b610ae8565b60405161033e9190612dbe565b60405180910390f35b34801561035357600080fd5b5061036e60048036038101906103699190612e16565b610b9e565b60405161037b9190612e84565b60405180910390f35b34801561039057600080fd5b50610399610c50565b6040516103a69190612dbe565b60405180910390f35b3480156103bb57600080fd5b506103d660048036038101906103d19190613189565b610cde565b6040516103e391906131c5565b60405180910390f35b3480156103f857600080fd5b50610401610d96565b60405161040e9190612dbe565b60405180910390f35b34801561042357600080fd5b5061043e6004803603810190610439919061320c565b610e28565b005b34801561044c57600080fd5b50610467600480360381019061046291906132ed565b610e3e565b005b34801561047557600080fd5b50610490600480360381019061048b9190612f70565b610ea0565b60405161049d9190612e84565b60405180910390f35b3480156104b257600080fd5b506104cd60048036038101906104c89190613370565b610eeb565b005b3480156104db57600080fd5b506104f660048036038101906104f19190612e16565b61100e565b6040516105039190612dbe565b60405180910390f35b34801561051857600080fd5b50610533600480360381019061052e91906133f1565b611160565b6040516105409190612d0a565b60405180910390f35b610563600480360381019061055e9190612f70565b6111f4565b005b34801561057157600080fd5b5061057a611676565b6040516105879190612dbe565b60405180910390f35b34801561059c57600080fd5b506105b760048036038101906105b29190612f70565b611704565b6040516105c491906131c5565b60405180910390f35b60007f80ac58cd000000000000000000000000000000000000000000000000000000007bffffffffffffffffffffffffffffffffffffffffffffffffffffffff1916827bffffffffffffffffffffffffffffffffffffffffffffffffffffffff1916148061069857507f5b5e139f000000000000000000000000000000000000000000000000000000007bffffffffffffffffffffffffffffffffffffffffffffffffffffffff1916827bffffffffffffffffffffffffffffffffffffffffffffffffffffffff1916145b806106a857506106a78261187c565b5b9050919050565b6060600080546106be90613460565b80601f01602080910402602001604051908101604052809291908181526020018280546106ea90613460565b80156107375780601f1061070c57610100808354040283529160200191610737565b820191906000526020600020905b81548152906001019060200180831161071a57829003601f168201915b5050505050905090565b600061074c826118e6565b61078b576040517f08c379a000000000000000000000000000000000000000000000000000000000815260040161078290613504565b60405180910390fd5b6004600083815260200190815260200160002060009054906101000a900473ffffffffffffffffffffffffffffffffffffffff169050919050565b60006107d182610b9e565b90508073ffffffffffffffffffffffffffffffffffffffff168373ffffffffffffffffffffffffffffffffffffffff161415610842576040517f08c379a000000000000000000000000000000000000000000000000000000000815260040161083990613596565b60405180910390fd5b8073ffffffffffffffffffffffffffffffffffffffff16610861611952565b73ffffffffffffffffffffffffffffffffffffffff161480610890575061088f8161088a611952565b611160565b5b6108cf576040517f08c379a00000000000000000000000000000000000000000000000000000000081526004016108c690613628565b60405180910390fd5b6108d9838361195a565b505050565b6060600c83836040516108f2929190613678565b9081526020016040518091039020805461090b90613460565b80601f016020809104026020016040519081016040528092919081815260200182805461093790613460565b80156109845780601f1061095957610100808354040283529160200191610984565b820191906000526020600020905b81548152906001019060200180831161096757829003601f168201915b5050505050905092915050565b6109a261099c611952565b82611a13565b6109e1576040517f08c379a00000000000000000000000000000000000000000000000000000000081526004016109d890613703565b60405180910390fd5b6109ec838383611af1565b505050565b600b818051602081018201805184825260208301602085012081835280955050505050506000915054906101000a900473ffffffffffffffffffffffffffffffffffffffff1681565b600a8054610a4790613460565b80601f0160208091040260200160405190810160405280929190818152602001828054610a7390613460565b8015610ac05780601f10610a9557610100808354040283529160200191610ac0565b820191906000526020600020905b815481529060010190602001808311610aa357829003601f168201915b505050505081565b610ae383838360405180602001604052806000815250610e3e565b505050565b600c818051602081018201805184825260208301602085012081835280955050505050506000915090508054610b1d90613460565b80601f0160208091040260200160405190810160405280929190818152602001828054610b4990613460565b8015610b965780601f10610b6b57610100808354040283529160200191610b96565b820191906000526020600020905b815481529060010190602001808311610b7957829003601f168201915b505050505081565b6000806002600084815260200190815260200160002060009054906101000a900473ffffffffffffffffffffffffffffffffffffffff169050600073ffffffffffffffffffffffffffffffffffffffff168173ffffffffffffffffffffffffffffffffffffffff161415610c47576040517f08c379a0000000000000000000000000000000000000000000000000000000008152600401610c3e90613795565b60405180910390fd5b80915050919050565b60088054610c5d90613460565b80601f0160208091040260200160405190810160405280929190818152602001828054610c8990613460565b8015610cd65780601f10610cab57610100808354040283529160200191610cd6565b820191906000526020600020905b815481529060010190602001808311610cb957829003601f168201915b505050505081565b60008073ffffffffffffffffffffffffffffffffffffffff168273ffffffffffffffffffffffffffffffffffffffff161415610d4f576040517f08c379a0000000000000000000000000000000000000000000000000000000008152600401610d4690613827565b60405180910390fd5b600360008373ffffffffffffffffffffffffffffffffffffffff1673ffffffffffffffffffffffffffffffffffffffff168152602001908152602001600020549050919050565b606060018054610da590613460565b80601f0160208091040260200160405190810160405280929190818152602001828054610dd190613460565b8015610e1e5780601f10610df357610100808354040283529160200191610e1e565b820191906000526020600020905b815481529060010190602001808311610e0157829003601f168201915b5050505050905090565b610e3a610e33611952565b8383611d58565b5050565b610e4f610e49611952565b83611a13565b610e8e576040517f08c379a0000000000000000000000000000000000000000000000000000000008152600401610e8590613703565b60405180910390fd5b610e9a84848484611ec5565b50505050565b6000600b8383604051610eb4929190613678565b908152602001604051809103902060009054906101000a900473ffffffffffffffffffffffffffffffffffffffff16905092915050565b3373ffffffffffffffffffffffffffffffffffffffff16600b8585604051610f14929190613678565b908152602001604051809103902060009054906101000a900473ffffffffffffffffffffffffffffffffffffffff1673ffffffffffffffffffffffffffffffffffffffff1614610f99576040517f08c379a0000000000000000000000000000000000000000000000000000000008152600401610f9090613893565b60405180910390fd5b8181600c8484604051610fad929190613678565b90815260200160405180910390209190610fc8929190612b2d565b506110086040518060400160405280601481526020017f257320686173207365742061207265636f72642100000000000000000000000081525033611f21565b50505050565b6060611019826118e6565b611058576040517f08c379a000000000000000000000000000000000000000000000000000000000815260040161104f90613925565b60405180910390fd5b600060066000848152602001908152602001600020805461107890613460565b80601f01602080910402602001604051908101604052809291908181526020018280546110a490613460565b80156110f15780601f106110c6576101008083540402835291602001916110f1565b820191906000526020600020905b8154815290600101906020018083116110d457829003601f168201915b505050505090506000611102611fbd565b905060008151141561111857819250505061115b565b60008251111561114d578082604051602001611135929190613976565b6040516020818303038152906040529250505061115b565b61115684611fd4565b925050505b919050565b6000600560008473ffffffffffffffffffffffffffffffffffffffff1673ffffffffffffffffffffffffffffffffffffffff16815260200190815260200160002060008373ffffffffffffffffffffffffffffffffffffffff1673ffffffffffffffffffffffffffffffffffffffff16815260200190815260200160002060009054906101000a900460ff16905092915050565b600073ffffffffffffffffffffffffffffffffffffffff16600b838360405161121e929190613678565b908152602001604051809103902060009054906101000a900473ffffffffffffffffffffffffffffffffffffffff1673ffffffffffffffffffffffffffffffffffffffff16146112a3576040517f08c379a000000000000000000000000000000000000000000000000000000000815260040161129a906139e6565b60405180910390fd5b60003073ffffffffffffffffffffffffffffffffffffffff1663fe2c619884846040518363ffffffff1660e01b81526004016112e0929190613a33565b602060405180830381865afa1580156112fd573d6000803e3d6000fd5b505050506040513d601f19601f820116820180604052508101906113219190613a6c565b905080341015611366576040517f08c379a000000000000000000000000000000000000000000000000000000000815260040161135d90613ae5565b60405180910390fd5b60008383600a60405160200161137e93929190613be5565b6040516020818303038152906040529050600060088260096040516020016113a893929190613c16565b604051602081830303815290604052905060006113c5600761207b565b905060006113d284612089565b905060006113df8261223e565b90506114d36040518060600160405280603181526020016147bb6031913989898080601f016020809104026020016040519081016040528093929190818152602001838380828437600081840152601f19601f82011690508083019250505050505050600a805461144f90613460565b80601f016020809104026020016040519081016040528092919081815260200182805461147b90613460565b80156114c85780601f1061149d576101008083540402835291602001916114c8565b820191906000526020600020905b8154815290600101906020018083116114ab57829003601f168201915b50505050508661239f565b6000611509866114e287612441565b846040516020016114f593929190613dc3565b604051602081830303815290604052612441565b905060008160405160200161151e9190613e6c565b6040516020818303038152906040529050611550604051806060016040528060398152602001614782603991396125d9565b61158f6040518060400160405280600e81526020017f46696e616c20746f6b656e555249000000000000000000000000000000000000815250826117e0565b6115b06040518060600160405280603981526020016147ec603991396125d9565b6115ba3386612672565b6115c48582612690565b33600b886040516115d59190613e8e565b908152602001604051809103902060006101000a81548173ffffffffffffffffffffffffffffffffffffffff021916908373ffffffffffffffffffffffffffffffffffffffff16021790555061162b6007612704565b61166a6040518060400160405280601b81526020017f2573206861732072656769737465726564206120646f6d61696e21000000000081525033611f21565b50505050505050505050565b6009805461168390613460565b80601f01602080910402602001604051908101604052809291908181526020018280546116af90613460565b80156116fc5780601f106116d1576101008083540402835291602001916116fc565b820191906000526020600020905b8154815290600101906020018083116116df57829003601f168201915b505050505081565b60008061175484848080601f016020809104026020016040519081016040528093929190818152602001838380828437600081840152601f19601f82011690508083019250505050505050612089565b905060008111611799576040517f08c379a000000000000000000000000000000000000000000000000000000000815260040161179090613ef1565b60405180910390fd5b60038114156117b3576706f05b59d3b200009150506117da565b60048114156117cd57670429d069189e00009150506117da565b67016345785d8a00009150505b92915050565b61187882826040516024016117f6929190613f11565b6040516020818303038152906040527f4b5c4277000000000000000000000000000000000000000000000000000000007bffffffffffffffffffffffffffffffffffffffffffffffffffffffff19166020820180517bffffffffffffffffffffffffffffffffffffffffffffffffffffffff838183161783525050505061271a565b5050565b60007f01ffc9a7000000000000000000000000000000000000000000000000000000007bffffffffffffffffffffffffffffffffffffffffffffffffffffffff1916827bffffffffffffffffffffffffffffffffffffffffffffffffffffffff1916149050919050565b60008073ffffffffffffffffffffffffffffffffffffffff166002600084815260200190815260200160002060009054906101000a900473ffffffffffffffffffffffffffffffffffffffff1673ffffffffffffffffffffffffffffffffffffffff1614159050919050565b600033905090565b816004600083815260200190815260200160002060006101000a81548173ffffffffffffffffffffffffffffffffffffffff021916908373ffffffffffffffffffffffffffffffffffffffff160217905550808273ffffffffffffffffffffffffffffffffffffffff166119cd83610b9e565b73ffffffffffffffffffffffffffffffffffffffff167f8c5be1e5ebec7d5bd14f71427d1e84f3dd0314c0f7b2291e5b200ac8c7c3b92560405160405180910390a45050565b6000611a1e826118e6565b611a5d576040517f08c379a0000000000000000000000000000000000000000000000000000000008152600401611a5490613fba565b60405180910390fd5b6000611a6883610b9e565b90508073ffffffffffffffffffffffffffffffffffffffff168473ffffffffffffffffffffffffffffffffffffffff161480611ad757508373ffffffffffffffffffffffffffffffffffffffff16611abf84610741565b73ffffffffffffffffffffffffffffffffffffffff16145b80611ae85750611ae78185611160565b5b91505092915050565b8273ffffffffffffffffffffffffffffffffffffffff16611b1182610b9e565b73ffffffffffffffffffffffffffffffffffffffff1614611b67576040517f08c379a0000000000000000000000000000000000000000000000000000000008152600401611b5e9061404c565b60405180910390fd5b600073ffffffffffffffffffffffffffffffffffffffff168273ffffffffffffffffffffffffffffffffffffffff161415611bd7576040517f08c379a0000000000000000000000000000000000000000000000000000000008152600401611bce906140de565b60405180910390fd5b611be2838383612743565b611bed60008261195a565b6001600360008573ffffffffffffffffffffffffffffffffffffffff1673ffffffffffffffffffffffffffffffffffffffff1681526020019081526020016000206000828254611c3d919061412d565b925050819055506001600360008473ffffffffffffffffffffffffffffffffffffffff1673ffffffffffffffffffffffffffffffffffffffff1681526020019081526020016000206000828254611c949190614161565b92505081905550816002600083815260200190815260200160002060006101000a81548173ffffffffffffffffffffffffffffffffffffffff021916908373ffffffffffffffffffffffffffffffffffffffff160217905550808273ffffffffffffffffffffffffffffffffffffffff168473ffffffffffffffffffffffffffffffffffffffff167fddf252ad1be2c89b69c2b068fc378daa952ba7f163c4a11628f55a4df523b3ef60405160405180910390a4611d53838383612748565b505050565b8173ffffffffffffffffffffffffffffffffffffffff168373ffffffffffffffffffffffffffffffffffffffff161415611dc7576040517f08c379a0000000000000000000000000000000000000000000000000000000008152600401611dbe90614203565b60405180910390fd5b80600560008573ffffffffffffffffffffffffffffffffffffffff1673ffffffffffffffffffffffffffffffffffffffff16815260200190815260200160002060008473ffffffffffffffffffffffffffffffffffffffff1673ffffffffffffffffffffffffffffffffffffffff16815260200190815260200160002060006101000a81548160ff0219169083151502179055508173ffffffffffffffffffffffffffffffffffffffff168373ffffffffffffffffffffffffffffffffffffffff167f17307eab39ab6107e8899845ad3d59bd9653f200f220920489ca2b5937696c3183604051611eb89190612d0a565b60405180910390a3505050565b611ed0848484611af1565b611edc8484848461274d565b611f1b576040517f08c379a0000000000000000000000000000000000000000000000000000000008152600401611f1290614295565b60405180910390fd5b50505050565b611fb98282604051602401611f379291906142b5565b6040516020818303038152906040527f319af333000000000000000000000000000000000000000000000000000000007bffffffffffffffffffffffffffffffffffffffffffffffffffffffff19166020820180517bffffffffffffffffffffffffffffffffffffffffffffffffffffffff838183161783525050505061271a565b5050565b606060405180602001604052806000815250905090565b6060611fdf826118e6565b61201e576040517f08c379a000000000000000000000000000000000000000000000000000000000815260040161201590614357565b60405180910390fd5b6000612028611fbd565b905060008151116120485760405180602001604052806000815250612073565b806120528461223e565b604051602001612063929190613976565b6040516020818303038152906040525b915050919050565b600081600001549050919050565b60008060008084519050600092505b808210156122335760008583815181106120b5576120b4614377565b5b602001015160f81c60f81b9050608060f81b817effffffffffffffffffffffffffffffffffffffffffffffffffffffffffffff19161015612104576001836120fd9190614161565b925061221f565b60e060f81b817effffffffffffffffffffffffffffffffffffffffffffffffffffffffffffff191610156121465760028361213f9190614161565b925061221e565b60f060f81b817effffffffffffffffffffffffffffffffffffffffffffffffffffffffffffff19161015612188576003836121819190614161565b925061221d565b60f8801b817effffffffffffffffffffffffffffffffffffffffffffffffffffffffffffff191610156121c9576004836121c29190614161565b925061221c565b60fc60f81b817effffffffffffffffffffffffffffffffffffffffffffffffffffffffffffff1916101561220b576005836122049190614161565b925061221b565b6006836122189190614161565b92505b5b5b5b5b50828061222b906143a6565b935050612098565b829350505050919050565b60606000821415612286576040518060400160405280600181526020017f3000000000000000000000000000000000000000000000000000000000000000815250905061239a565b600082905060005b600082146122b85780806122a1906143a6565b915050600a826122b1919061441e565b915061228e565b60008167ffffffffffffffff8111156122d4576122d3613015565b5b6040519080825280601f01601f1916602001820160405280156123065781602001600182028036833780820191505090505b5090505b600085146123935760018261231f919061412d565b9150600a8561232e919061444f565b603061233a9190614161565b60f81b8183815181106123505761234f614377565b5b60200101907effffffffffffffffffffffffffffffffffffffffffffffffffffffffffffff1916908160001a905350600a8561238c919061441e565b945061230a565b8093505050505b919050565b61243b848484846040516024016123b99493929190614480565b6040516020818303038152906040527f9fd009f5000000000000000000000000000000000000000000000000000000007bffffffffffffffffffffffffffffffffffffffffffffffffffffffff19166020820180517bffffffffffffffffffffffffffffffffffffffffffffffffffffffff838183161783525050505061271a565b50505050565b6060600082519050600081141561246a57604051806020016040528060008152509150506125d4565b6000600360028361247b9190614161565b612485919061441e565b600461249191906144da565b905060006020826124a29190614161565b67ffffffffffffffff8111156124bb576124ba613015565b5b6040519080825280601f01601f1916602001820160405280156124ed5781602001600182028036833780820191505090505b5090506000604051806060016040528060408152602001614825604091399050600181016020830160005b868110156125915760038101905062ffffff818a015116603f8160121c168401518060081b905060ff603f83600c1c1686015116810190508060081b905060ff603f8360061c1686015116810190508060081b905060ff603f831686015116810190508060e01b90508084526004840193505050612518565b5060038606600181146125ab57600281146125bb576125c6565b613d3d60f01b60028303526125c6565b603d60f81b60018303525b508484525050819450505050505b919050565b61266f816040516024016125ed9190612dbe565b6040516020818303038152906040527f41304fac000000000000000000000000000000000000000000000000000000007bffffffffffffffffffffffffffffffffffffffffffffffffffffffff19166020820180517bffffffffffffffffffffffffffffffffffffffffffffffffffffffff838183161783525050505061271a565b50565b61268c8282604051806020016040528060008152506128d5565b5050565b612699826118e6565b6126d8576040517f08c379a00000000000000000000000000000000000000000000000000000000081526004016126cf906145a6565b60405180910390fd5b806006600084815260200190815260200160002090805190602001906126ff929190612bb3565b505050565b6001816000016000828254019250508190555050565b60008151905060006a636f6e736f6c652e6c6f679050602083016000808483855afa5050505050565b505050565b505050565b600061276e8473ffffffffffffffffffffffffffffffffffffffff16612930565b156128c8578373ffffffffffffffffffffffffffffffffffffffff1663150b7a02612797611952565b8786866040518563ffffffff1660e01b81526004016127b9949392919061461b565b6020604051808303816000875af19250505080156127f557506040513d601f19601f820116820180604052508101906127f2919061467c565b60015b612878573d8060008114612825576040519150601f19603f3d011682016040523d82523d6000602084013e61282a565b606091505b50600081511415612870576040517f08c379a000000000000000000000000000000000000000000000000000000000815260040161286790614295565b60405180910390fd5b805181602001fd5b63150b7a0260e01b7bffffffffffffffffffffffffffffffffffffffffffffffffffffffff1916817bffffffffffffffffffffffffffffffffffffffffffffffffffffffff1916149150506128cd565b600190505b949350505050565b6128df8383612953565b6128ec600084848461274d565b61292b576040517f08c379a000000000000000000000000000000000000000000000000000000000815260040161292290614295565b60405180910390fd5b505050565b6000808273ffffffffffffffffffffffffffffffffffffffff163b119050919050565b600073ffffffffffffffffffffffffffffffffffffffff168273ffffffffffffffffffffffffffffffffffffffff1614156129c3576040517f08c379a00000000000000000000000000000000000000000000000000000000081526004016129ba906146f5565b60405180910390fd5b6129cc816118e6565b15612a0c576040517f08c379a0000000000000000000000000000000000000000000000000000000008152600401612a0390614761565b60405180910390fd5b612a1860008383612743565b6001600360008473ffffffffffffffffffffffffffffffffffffffff1673ffffffffffffffffffffffffffffffffffffffff1681526020019081526020016000206000828254612a689190614161565b92505081905550816002600083815260200190815260200160002060006101000a81548173ffffffffffffffffffffffffffffffffffffffff021916908373ffffffffffffffffffffffffffffffffffffffff160217905550808273ffffffffffffffffffffffffffffffffffffffff16600073ffffffffffffffffffffffffffffffffffffffff167fddf252ad1be2c89b69c2b068fc378daa952ba7f163c4a11628f55a4df523b3ef60405160405180910390a4612b2960008383612748565b5050565b828054612b3990613460565b90600052602060002090601f016020900481019282612b5b5760008555612ba2565b82601f10612b7457803560ff1916838001178555612ba2565b82800160010185558215612ba2579182015b82811115612ba1578235825591602001919060010190612b86565b5b509050612baf9190612c39565b5090565b828054612bbf90613460565b90600052602060002090601f016020900481019282612be15760008555612c28565b82601f10612bfa57805160ff1916838001178555612c28565b82800160010185558215612c28579182015b82811115612c27578251825591602001919060010190612c0c565b5b509050612c359190612c39565b5090565b5b80821115612c52576000816000905550600101612c3a565b5090565b6000604051905090565b600080fd5b600080fd5b60007fffffffff0000000000000000000000000000000000000000000000000000000082169050919050565b612c9f81612c6a565b8114612caa57600080fd5b50565b600081359050612cbc81612c96565b92915050565b600060208284031215612cd857612cd7612c60565b5b6000612ce684828501612cad565b91505092915050565b60008115159050919050565b612d0481612cef565b82525050565b6000602082019050612d1f6000830184612cfb565b92915050565b600081519050919050565b600082825260208201905092915050565b60005b83811015612d5f578082015181840152602081019050612d44565b83811115612d6e576000848401525b50505050565b6000601f19601f8301169050919050565b6000612d9082612d25565b612d9a8185612d30565b9350612daa818560208601612d41565b612db381612d74565b840191505092915050565b60006020820190508181036000830152612dd88184612d85565b905092915050565b6000819050919050565b612df381612de0565b8114612dfe57600080fd5b50565b600081359050612e1081612dea565b92915050565b600060208284031215612e2c57612e2b612c60565b5b6000612e3a84828501612e01565b91505092915050565b600073ffffffffffffffffffffffffffffffffffffffff82169050919050565b6000612e6e82612e43565b9050919050565b612e7e81612e63565b82525050565b6000602082019050612e996000830184612e75565b92915050565b612ea881612e63565b8114612eb357600080fd5b50565b600081359050612ec581612e9f565b92915050565b60008060408385031215612ee257612ee1612c60565b5b6000612ef085828601612eb6565b9250506020612f0185828601612e01565b9150509250929050565b600080fd5b600080fd5b600080fd5b60008083601f840112612f3057612f2f612f0b565b5b8235905067ffffffffffffffff811115612f4d57612f4c612f10565b5b602083019150836001820283011115612f6957612f68612f15565b5b9250929050565b60008060208385031215612f8757612f86612c60565b5b600083013567ffffffffffffffff811115612fa557612fa4612c65565b5b612fb185828601612f1a565b92509250509250929050565b600080600060608486031215612fd657612fd5612c60565b5b6000612fe486828701612eb6565b9350506020612ff586828701612eb6565b925050604061300686828701612e01565b9150509250925092565b600080fd5b7f4e487b7100000000000000000000000000000000000000000000000000000000600052604160045260246000fd5b61304d82612d74565b810181811067ffffffffffffffff8211171561306c5761306b613015565b5b80604052505050565b600061307f612c56565b905061308b8282613044565b919050565b600067ffffffffffffffff8211156130ab576130aa613015565b5b6130b482612d74565b9050602081019050919050565b82818337600083830152505050565b60006130e36130de84613090565b613075565b9050828152602081018484840111156130ff576130fe613010565b5b61310a8482856130c1565b509392505050565b600082601f83011261312757613126612f0b565b5b81356131378482602086016130d0565b91505092915050565b60006020828403121561315657613155612c60565b5b600082013567ffffffffffffffff81111561317457613173612c65565b5b61318084828501613112565b91505092915050565b60006020828403121561319f5761319e612c60565b5b60006131ad84828501612eb6565b91505092915050565b6131bf81612de0565b82525050565b60006020820190506131da60008301846131b6565b92915050565b6131e981612cef565b81146131f457600080fd5b50565b600081359050613206816131e0565b92915050565b6000806040838503121561322357613222612c60565b5b600061323185828601612eb6565b9250506020613242858286016131f7565b9150509250929050565b600067ffffffffffffffff82111561326757613266613015565b5b61327082612d74565b9050602081019050919050565b600061329061328b8461324c565b613075565b9050828152602081018484840111156132ac576132ab613010565b5b6132b78482856130c1565b509392505050565b600082601f8301126132d4576132d3612f0b565b5b81356132e484826020860161327d565b91505092915050565b6000806000806080858703121561330757613306612c60565b5b600061331587828801612eb6565b945050602061332687828801612eb6565b935050604061333787828801612e01565b925050606085013567ffffffffffffffff81111561335857613357612c65565b5b613364878288016132bf565b91505092959194509250565b6000806000806040858703121561338a57613389612c60565b5b600085013567ffffffffffffffff8111156133a8576133a7612c65565b5b6133b487828801612f1a565b9450945050602085013567ffffffffffffffff8111156133d7576133d6612c65565b5b6133e387828801612f1a565b925092505092959194509250565b6000806040838503121561340857613407612c60565b5b600061341685828601612eb6565b925050602061342785828601612eb6565b9150509250929050565b7f4e487b7100000000000000000000000000000000000000000000000000000000600052602260045260246000fd5b6000600282049050600182168061347857607f821691505b6020821081141561348c5761348b613431565b5b50919050565b7f4552433732313a20617070726f76656420717565727920666f72206e6f6e657860008201527f697374656e7420746f6b656e0000000000000000000000000000000000000000602082015250565b60006134ee602c83612d30565b91506134f982613492565b604082019050919050565b6000602082019050818103600083015261351d816134e1565b9050919050565b7f4552433732313a20617070726f76616c20746f2063757272656e74206f776e6560008201527f7200000000000000000000000000000000000000000000000000000000000000602082015250565b6000613580602183612d30565b915061358b82613524565b604082019050919050565b600060208201905081810360008301526135af81613573565b9050919050565b7f4552433732313a20617070726f76652063616c6c6572206973206e6f74206f7760008201527f6e6572206e6f7220617070726f76656420666f7220616c6c0000000000000000602082015250565b6000613612603883612d30565b915061361d826135b6565b604082019050919050565b6000602082019050818103600083015261364181613605565b9050919050565b600081905092915050565b600061365f8385613648565b935061366c8385846130c1565b82840190509392505050565b6000613685828486613653565b91508190509392505050565b7f4552433732313a207472616e736665722063616c6c6572206973206e6f74206f60008201527f776e6572206e6f7220617070726f766564000000000000000000000000000000602082015250565b60006136ed603183612d30565b91506136f882613691565b604082019050919050565b6000602082019050818103600083015261371c816136e0565b9050919050565b7f4552433732313a206f776e657220717565727920666f72206e6f6e657869737460008201527f656e7420746f6b656e0000000000000000000000000000000000000000000000602082015250565b600061377f602983612d30565b915061378a82613723565b604082019050919050565b600060208201905081810360008301526137ae81613772565b9050919050565b7f4552433732313a2062616c616e636520717565727920666f7220746865207a6560008201527f726f206164647265737300000000000000000000000000000000000000000000602082015250565b6000613811602a83612d30565b915061381c826137b5565b604082019050919050565b6000602082019050818103600083015261384081613804565b9050919050565b7f596f7520646f6e2774206f776e207468697320646f6d61696e00000000000000600082015250565b600061387d601983612d30565b915061388882613847565b602082019050919050565b600060208201905081810360008301526138ac81613870565b9050919050565b7f45524337323155524953746f726167653a2055524920717565727920666f722060008201527f6e6f6e6578697374656e7420746f6b656e000000000000000000000000000000602082015250565b600061390f603183612d30565b915061391a826138b3565b604082019050919050565b6000602082019050818103600083015261393e81613902565b9050919050565b600061395082612d25565b61395a8185613648565b935061396a818560208601612d41565b80840191505092915050565b60006139828285613945565b915061398e8284613945565b91508190509392505050565b7f446f6d61696e20616c7265616479207265676973746572656400000000000000600082015250565b60006139d0601983612d30565b91506139db8261399a565b602082019050919050565b600060208201905081810360008301526139ff816139c3565b9050919050565b6000613a128385612d30565b9350613a1f8385846130c1565b613a2883612d74565b840190509392505050565b60006020820190508181036000830152613a4e818486613a06565b90509392505050565b600081519050613a6681612dea565b92915050565b600060208284031215613a8257613a81612c60565b5b6000613a9084828501613a57565b91505092915050565b7f4e6f7420656e6f756768204d6174696320746f20726567697374657200000000600082015250565b6000613acf601c83612d30565b9150613ada82613a99565b602082019050919050565b60006020820190508181036000830152613afe81613ac2565b9050919050565b7f2e00000000000000000000000000000000000000000000000000000000000000600082015250565b6000613b3b600183613648565b9150613b4682613b05565b600182019050919050565b60008190508160005260206000209050919050565b60008154613b7381613460565b613b7d8186613648565b94506001821660008114613b985760018114613ba957613bdc565b60ff19831686528186019350613bdc565b613bb285613b51565b60005b83811015613bd457815481890152600182019150602081019050613bb5565b838801955050505b50505092915050565b6000613bf2828587613653565b9150613bfd82613b2e565b9150613c098284613b66565b9150819050949350505050565b6000613c228286613b66565b9150613c2e8285613945565b9150613c3a8284613b66565b9150819050949350505050565b7f7b226e616d65223a202200000000000000000000000000000000000000000000600082015250565b6000613c7d600a83613648565b9150613c8882613c47565b600a82019050919050565b7f222c20226465736372697074696f6e223a20224120646f6d61696e206f6e207460008201527f6865204e696e6a61206e616d652073657276696365222c2022696d616765223a60208201527f2022646174613a696d6167652f7376672b786d6c3b6261736536342c00000000604082015250565b6000613d15605c83613648565b9150613d2082613c93565b605c82019050919050565b7f222c226c656e677468223a220000000000000000000000000000000000000000600082015250565b6000613d61600c83613648565b9150613d6c82613d2b565b600c82019050919050565b7f227d000000000000000000000000000000000000000000000000000000000000600082015250565b6000613dad600283613648565b9150613db882613d77565b600282019050919050565b6000613dce82613c70565b9150613dda8286613945565b9150613de582613d08565b9150613df18285613945565b9150613dfc82613d54565b9150613e088284613945565b9150613e1382613da0565b9150819050949350505050565b7f646174613a6170706c69636174696f6e2f6a736f6e3b6261736536342c000000600082015250565b6000613e56601d83613648565b9150613e6182613e20565b601d82019050919050565b6000613e7782613e49565b9150613e838284613945565b915081905092915050565b6000613e9a8284613945565b915081905092915050565b7f446f6d61696e206d757374206265203e3120636861726163746572206c6f6e67600082015250565b6000613edb602083612d30565b9150613ee682613ea5565b602082019050919050565b60006020820190508181036000830152613f0a81613ece565b9050919050565b60006040820190508181036000830152613f2b8185612d85565b90508181036020830152613f3f8184612d85565b90509392505050565b7f4552433732313a206f70657261746f7220717565727920666f72206e6f6e657860008201527f697374656e7420746f6b656e0000000000000000000000000000000000000000602082015250565b6000613fa4602c83612d30565b9150613faf82613f48565b604082019050919050565b60006020820190508181036000830152613fd381613f97565b9050919050565b7f4552433732313a207472616e736665722066726f6d20696e636f72726563742060008201527f6f776e6572000000000000000000000000000000000000000000000000000000602082015250565b6000614036602583612d30565b915061404182613fda565b604082019050919050565b6000602082019050818103600083015261406581614029565b9050919050565b7f4552433732313a207472616e7366657220746f20746865207a65726f2061646460008201527f7265737300000000000000000000000000000000000000000000000000000000602082015250565b60006140c8602483612d30565b91506140d38261406c565b604082019050919050565b600060208201905081810360008301526140f7816140bb565b9050919050565b7f4e487b7100000000000000000000000000000000000000000000000000000000600052601160045260246000fd5b600061413882612de0565b915061414383612de0565b925082821015614156576141556140fe565b5b828203905092915050565b600061416c82612de0565b915061417783612de0565b9250827fffffffffffffffffffffffffffffffffffffffffffffffffffffffffffffffff038211156141ac576141ab6140fe565b5b828201905092915050565b7f4552433732313a20617070726f766520746f2063616c6c657200000000000000600082015250565b60006141ed601983612d30565b91506141f8826141b7565b602082019050919050565b6000602082019050818103600083015261421c816141e0565b9050919050565b7f4552433732313a207472616e7366657220746f206e6f6e20455243373231526560008201527f63656976657220696d706c656d656e7465720000000000000000000000000000602082015250565b600061427f603283612d30565b915061428a82614223565b604082019050919050565b600060208201905081810360008301526142ae81614272565b9050919050565b600060408201905081810360008301526142cf8185612d85565b90506142de6020830184612e75565b9392505050565b7f4552433732314d657461646174613a2055524920717565727920666f72206e6f60008201527f6e6578697374656e7420746f6b656e0000000000000000000000000000000000602082015250565b6000614341602f83612d30565b915061434c826142e5565b604082019050919050565b6000602082019050818103600083015261437081614334565b9050919050565b7f4e487b7100000000000000000000000000000000000000000000000000000000600052603260045260246000fd5b60006143b182612de0565b91507fffffffffffffffffffffffffffffffffffffffffffffffffffffffffffffffff8214156143e4576143e36140fe565b5b600182019050919050565b7f4e487b7100000000000000000000000000000000000000000000000000000000600052601260045260246000fd5b600061442982612de0565b915061443483612de0565b925082614444576144436143ef565b5b828204905092915050565b600061445a82612de0565b915061446583612de0565b925082614475576144746143ef565b5b828206905092915050565b6000608082019050818103600083015261449a8187612d85565b905081810360208301526144ae8186612d85565b905081810360408301526144c28185612d85565b90506144d160608301846131b6565b95945050505050565b60006144e582612de0565b91506144f083612de0565b9250817fffffffffffffffffffffffffffffffffffffffffffffffffffffffffffffffff0483118215151615614529576145286140fe565b5b828202905092915050565b7f45524337323155524953746f726167653a2055524920736574206f66206e6f6e60008201527f6578697374656e7420746f6b656e000000000000000000000000000000000000602082015250565b6000614590602e83612d30565b915061459b82614534565b604082019050919050565b600060208201905081810360008301526145bf81614583565b9050919050565b600081519050919050565b600082825260208201905092915050565b60006145ed826145c6565b6145f781856145d1565b9350614607818560208601612d41565b61461081612d74565b840191505092915050565b60006080820190506146306000830187612e75565b61463d6020830186612e75565b61464a60408301856131b6565b818103606083015261465c81846145e2565b905095945050505050565b60008151905061467681612c96565b92915050565b60006020828403121561469257614691612c60565b5b60006146a084828501614667565b91505092915050565b7f4552433732313a206d696e7420746f20746865207a65726f2061646472657373600082015250565b60006146df602083612d30565b91506146ea826146a9565b602082019050919050565b6000602082019050818103600083015261470e816146d2565b9050919050565b7f4552433732313a20746f6b656e20616c7265616479206d696e74656400000000600082015250565b600061474b601c83612d30565b915061475682614715565b602082019050919050565b6000602082019050818103600083015261477a8161473e565b905091905056fe0a2d2d2d2d2d2d2d2d2d2d2d2d2d2d2d2d2d2d2d2d2d2d2d2d2d2d2d2d2d2d2d2d2d2d2d2d2d2d2d2d2d2d2d2d2d2d2d2d2d2d2d2d2d2d2d2d5265676973746572696e672025732e2573206f6e2074686520636f6e7472616374207769746820746f6b656e49442025642d2d2d2d2d2d2d2d2d2d2d2d2d2d2d2d2d2d2d2d2d2d2d2d2d2d2d2d2d2d2d2d2d2d2d2d2d2d2d2d2d2d2d2d2d2d2d2d2d2d2d2d2d2d2d2d0a4142434445464748494a4b4c4d4e4f505152535455565758595a6162636465666768696a6b6c6d6e6f707172737475767778797a303132333435363738392b2fa264697066735822122095523cc4088423dc6bac72096bb34aeb233e31852eed00d90102c90f287991ef64736f6c634300080a00333c73766720786d6c6e733d22687474703a2f2f7777772e77332e6f72672f323030302f737667222077696474683d2232373022206865696768743d22323730222066696c6c3d226e6f6e65223e3c706174682066696c6c3d2275726c282342292220643d224d302030683237307632373048307a222f3e3c646566733e3c66696c7465722069643d22412220636f6c6f722d696e746572706f6c6174696f6e2d66696c746572733d2273524742222066696c746572556e6974733d227573657253706163654f6e55736522206865696768743d22323730222077696474683d22323730223e3c666544726f70536861646f772064783d2230222064793d22312220737464446576696174696f6e3d22322220666c6f6f642d6f7061636974793d222e323235222077696474683d223230302522206865696768743d2232303025222f3e3c2f66696c7465723e3c2f646566733e3c7061746820643d224d37322e3836332034322e393439632d2e3636382d2e3338372d312e3432362d2e35392d322e3139372d2e3539732d312e3532392e3230342d322e3139372e35396c2d31302e30383120362e3033322d362e383520332e3933342d31302e30383120362e303332632d2e3636382e3338372d312e3432362e35392d322e3139372e3539732d312e3532392d2e3230342d322e3139372d2e35396c2d382e3031332d342e37323161342e353220342e35322030203020312d312e3538392d312e363136632d2e3338342d2e3636352d2e3539342d312e3431382d2e3630382d322e313837762d392e3331632d2e3031332d2e3737352e3138352d312e3533382e3537322d322e32303861342e323520342e323520302030203120312e3632352d312e3539356c372e3838342d342e3539632e3636382d2e33383720312e3432362d2e353920322e3139372d2e353973312e3532392e32303420322e3139372e35396c372e38383420342e353961342e353220342e353220302030203120312e35383920312e363136632e3338342e3636352e35393420312e3431382e36303820322e31383776362e3033326c362e38352d342e303635762d362e303332632e3031332d2e3737352d2e3138352d312e3533382d2e3537322d322e32303861342e323520342e32352030203020302d312e3632352d312e3539354c34312e3435362032342e3539632d2e3636382d2e3338372d312e3432362d2e35392d322e3139372d2e3539732d312e3532392e3230342d322e3139372e35396c2d31342e38363420382e36353561342e323520342e32352030203020302d312e36323520312e353935632d2e3338372e36372d2e35383520312e3433342d2e35373220322e3230387631372e343431632d2e3031332e3737352e31383520312e3533382e35373220322e32303861342e323520342e323520302030203020312e36323520312e3539356c31342e38363420382e363535632e3636382e33383720312e3432362e353920322e3139372e353973312e3532392d2e32303420322e3139372d2e35396c31302e3038312d352e39303120362e38352d342e3036352031302e3038312d352e393031632e3636382d2e33383720312e3432362d2e353920322e3139372d2e353973312e3532392e32303420322e3139372e35396c372e38383420342e353961342e353220342e353220302030203120312e35383920312e363136632e3338342e3636352e35393420312e3431382e36303820322e31383776392e333131632e3031332e3737352d2e31383520312e3533382d2e35373220322e32303861342e323520342e32352030203020312d312e36323520312e3539356c2d372e38383420342e373231632d2e3636382e3338372d312e3432362e35392d322e3139372e3539732d312e3532392d2e3230342d322e3139372d2e35396c2d372e3838342d342e353961342e353220342e35322030203020312d312e3538392d312e363136632d2e3338352d2e3636352d2e3539342d312e3431382d2e3630382d322e313837762d362e3033326c2d362e383520342e30363576362e303332632d2e3031332e3737352e31383520312e3533382e35373220322e32303861342e323520342e323520302030203020312e36323520312e3539356c31342e38363420382e363535632e3636382e33383720312e3432362e353920322e3139372e353973312e3532392d2e32303420322e3139372d2e35396c31342e3836342d382e363535632e3635372d2e33393420312e3230342d2e393520312e3538392d312e363136732e3539342d312e3431382e3630392d322e3138375635352e353338632e3031332d2e3737352d2e3138352d312e3533382d2e3537322d322e32303861342e323520342e32352030203020302d312e3632352d312e3539356c2d31342e3939332d382e3738367a222066696c6c3d2223666666222f3e3c646566733e3c6c696e6561724772616469656e742069643d2242222078313d2230222079313d2230222078323d22323730222079323d2232373022206772616469656e74556e6974733d227573657253706163654f6e557365223e3c73746f702073746f702d636f6c6f723d2223636235656565222f3e3c73746f70206f66667365743d2231222073746f702d636f6c6f723d2223306364376534222073746f702d6f7061636974793d222e3939222f3e3c2f6c696e6561724772616469656e743e3c2f646566733e3c7465787420783d2233322e352220793d223233312220666f6e742d73697a653d223237222066696c6c3d2223666666222066696c7465723d2275726c282341292220666f6e742d66616d696c793d22506c7573204a616b617274612053616e732c44656a6156752053616e732c4e6f746f20436f6c6f7220456d6f6a692c4170706c6520436f6c6f7220456d6f6a692c73616e732d73657269662220666f6e742d7765696768743d22626f6c64223e",
  "linkReferences": {},
  "deployedLinkReferences": {}
}